:107000005FC0000078C0000076C0000074C00000BF
:1070100072C0000070C000006EC000006CC00000B4
:107020006AC0000068C00000C7C4000064C000005F
:1070300062C0000060C000005EC000005CC00000D4
:107040005AC00000E6C0000056C0000054C0000056
:1070500052C0000050C000004EC000004CC00000F4
:107060004AC0000048C0000046C0000044C0000004
:1070700042C0000040C000003EC000003CC0000014
:107080003AC0000038C0000036C0000034C0000024
:1070900032C0000030C000002EC000002CC0000034
:1070A0002AC0000028C0000026C00000483E613E03
:1070B000083F613E083F993EBB3E083FDB3EED3E48
:1070C00011241FBECFEFDAE0DEBFCDBF11E0A0E09C
:1070D000B1E0EAE9FEE702C005900D92A63AB107D9
:1070E000D9F721E0A6EAB1E001C01D92AC3BB2079E
:1070F000E1F75CD3D0C684CF84E08093E90080912F
:10710000E80085FD0DC08091E8008B778093E80052
:107110008091E80082FDF3CF8EB38111F9CF02C0D8
:107120008091F100089593E09093E9009091E80038
:1071300095FF0AC08093F1005D9884E690E09093FB
:10714000AB018093AA0108959091E8009E779093F7
:10715000E8009091E80090FDEDCF9EB39111F9CF3A
:107160000895F89410926F0010928100109285009B
:107170001092840081E085BF15BE47985D9A289AD9
:107180000C94000008952091B0013091B1012F5F5F
:107190003F4F3093B1012093B001832F37FF02C0DE
:1071A0008EEF831B880F821710F447980895479A33
:1071B000089584B7877F84BF0FB6F894A89580910F
:1071C0006000886180936000109260000FBE90E8BC
:1071D00080E00FB6F89490936100809361000FBE39
:1071E00081E085BF82E085BF3F9A209A559AE1E60B
:1071F000F0E09083108247985D9A289A1092890057
:107200009AEF9093880080936F0083E080938100D1
:10721000BBC31F920F920FB60F9211242F938F931F
:107220009F93EF93FF9310928500109284008091BA
:10723000AA019091AB01009741F001979093AB01A7
:107240008093AA01892B09F45D9A8091A8019091FD
:10725000A901009741F001979093A9018093A8019B
:10726000892B09F4289AE0E0F0E085919491019649
:1072700049F08091A6019091A70101969093A701F2
:107280008093A601FF91EF919F918F912F910F9085
:107290000FBE0F901F90189542E061EC82E009D379
:1072A00042E161E883E005D342E160E884E001C3A4
:1072B0008091B401982F9F77913239F59091B50163
:1072C000903291F0913209F5813AF9F48091E80019
:1072D000877F8093E80067E070E083E091E01AD454
:1072E0008091E8008B770FC0813279F48091E800BB
:1072F000877F8093E80067E070E083E091E067D4E7
:107300008091E8008E778093E80008956F927F92D5
:107310008F929F92AF92BF92CF92DF92EF92FF92A5
:107320000F931F93CF93DF9384E08093E9008091C4
:10733000E80082FF2CC2289884E690E09093A9018F
:107340008093A801D9DEC82F853481F48CE49DE1B7
:107350009093A7018093A60107B600FCFDCFF99991
:10736000FECF81E180935700E89503C0843521F476
:10737000C3DE8DE0D8DEE2C18C34D9F38035C9F3A9
:10738000843721F484E4CFDE80E0F4CF813611F439
:1073900089E5F0CF813491F4AFDEC82FADDE90E007
:1073A000880F991F2C2F30E0322F2227330F822B8A
:1073B000932B092E000CAA0BBB0B94C1803711F440
:1073C00083E5D8CF833549F4CCE9D1E01C2F195F90
:1073D0008991A9DE1C13FCCFB1C1863521F481E36C
:1073E000A2DE80E3C7CF833731F487E89CDE85E9EE
:1073F0009ADE8EE1BFCF8536B9F4E0E0F0E083E0BD
:1074000095E080935700E89507B600FCFDCF909378
:107410005700E89507B600FCFDCFE058FF4FE11597
:1074200020E7F20771F7A5CF823719F4E1E0F0E029
:107430000EC0863419F4E0E0F0E009C08E3419F48F
:10744000E3E0F0E004C0813539F4E2E0F0E089E007
:107450008093570084918ECF823631F489E563DEC4
:1074600080E061DE80E886CF823419F0873609F04B
:10747000D1C01092A7011092A6013EDE082F3CDE7B
:10748000D82F3ADE182F8BEB810F823010F08FE36C
:1074900071CF2D2F30E0302B10926F00C73609F0DE
:1074A00043C081E180935700E895E90100E0BB24E7
:1074B000B394209709F4AAC0C090AC01D090AD015C
:1074C000E090AE01F090AF011634B9F4E02FF0E097
:1074D000EC29FD29849127DE002369F082E0C80EA3
:1074E000D11CE11CF11CC092AC01D092AD01E09224
:1074F000AE01F092AF010B2515C0D701C601B695BC
:10750000A79597958795B1D40EDEE2E0CE0ED11CFB
:10751000E11CF11CC092AC01D092AD01E092AE0131
:10752000F092AF012197C5CF8090AC019090AD0152
:10753000A090AE01B090AF01163441F483E0F401A5
:1075400080935700E89507B600FCFDCFE901712C48
:1075500000E066246394209709F44CC0163431F59A
:10756000002301F1C090AC01D090AD01E090AE01DC
:10757000F090AF01C1DD272D30E0382BF601090175
:1075800060925700E8951124F2E0CF0ED11CE11C67
:10759000F11CC092AC01D092AD01E092AE01F0922C
:1075A000AF0102C0A9DD782E062522C0A5DD682F17
:1075B0008091AC019091AD01A091AE01B091AF016D
:1075C000B695A7959795879558D48091AC019091E1
:1075D000AD01A091AE01B091AF010296A11DB11D08
:1075E0008093AC019093AD01A093AE01B093AF0135
:1075F0002197B1CF163441F485E0F4018093570010
:10760000E89507B600FCFDCF8DE08DDD82E080932C
:107610006F0094C0833471F4C091AC01D091AD017E
:107620006BDD90E021E0FE010C0120935700E8950E
:1076300011249FCE833601F5C090AC01D090AD01EE
:10764000E090AE01F090AF0157DDF601E16090E00F
:1076500021E00C0120935700E8951124F2E0CF0EB1
:10766000D11CE11CF11CC092AC01D092AD01E092A2
:10767000AE01F092AF017DCE8D3661F4E091AC01A8
:10768000F091AD0185E080935700E89507B600FCC6
:10769000FDCF6FCE823551F4E091AC01F091AD0198
:1076A000C591D4918D2F3FDD8C2F64CE843419F594
:1076B00023DD682F8091AC019091AD01A091AE01C6
:1076C000B091AF01B695A79597958795D6D3809140
:1076D000AC019091AD01A091AE01B091AF010296C5
:1076E000A11DB11D8093AC019093AD01A093AE019B
:1076F000B093AF013ECE8436F1F4C090AC01D0908F
:10770000AD01E090AE01F090AF01D701C601B69592
:10771000A79597958795A9D306DD22E0C20ED11CC7
:10772000E11CF11CC092AC01D092AD01E092AE011F
:10773000F092AF0103C08B3109F0A9CE83E08093B2
:10774000E9009091E8008091E8008E778093E8004E
:1077500095FD11C08091E80080FD04C08EB38111B9
:10776000F9CF15C08091E8008E778093E80003C0C0
:107770008EB3882361F08091E80080FFF9CF84E028
:107780008093E9008091E8008B778093E800DF9197
:10779000CF911F910F91FF90EF90DF90CF90BF900E
:1077A000AF909F908F907F906F90089520910008E8
:1077B00030910108109201081092000884B714BE9D
:1077C0000FB6F894A895909160009861909360002E
:1077D000109260000FBE81FD1AC080FF09C0E0E07A
:1077E000F0E0459154914F3F5F4F11F0BADC0FC06C
:1077F00083FF0DC080910001909101012817390786
:1078000031F0E0E0F0E085919491019679F7D1DCD8
:1078100078941092A7011092A6018091020188230A
:1078200069F074DD0BD38091A6019091A70181349A
:107830009F4110F010920201A6DCEFCF8091E00092
:1078400081608093E0008DDC80E090E00895292F36
:1078500030E02230310559F02330310569F0213014
:107860003105F9F482E190E02AE831E01EC08EE3B0
:1078700090E02CE431E019C0882349F0813061F0B8
:10788000823079F488E190E02AE031E00EC084E0B3
:1078900090E028E431E009C082E290E024E231E0A7
:1078A00004C080E090E020E030E0FA0131832083E2
:1078B00008958093E900EBEEF0E0808181608083A1
:1078C000EDEEF0E010826093EC0040838091EE00DA
:1078D000881F8827881F08958091B40187FF0FC0F3
:1078E0008091E80082FD04C08EB38111F9CF10C0F1
:1078F0008091E8008B770AC08EB3882349F080918D
:10790000E80080FFF9CF8091E8008E778093E8004F
:1079100008950F931F93CF93DF9341D048D0C8EDC4
:10792000D0E088818F778883888180688883888188
:107930008F7D888319BC1EBA1092B20100EE10E050
:10794000F80180818B7F808388818160888342E019
:1079500060E080E0AEDFE1EEF0E080818E7F80834A
:10796000E2EEF0E0808181608083808188608083A6
:10797000F80180818E7F8083888180618883DF9198
:10798000CF911F910F910895E7EDF0E08081816024
:1079900080838AE482BF81E08093B301BACFE8EDAF
:1079A000F0E080818E7F80831092E2000895109233
:1079B000DA001092E10008951F920F920FB60F9215
:1079C00011242F933F934F935F936F937F938F93E4
:1079D0009F93AF93BF93EF93FF938091DA0080FF63
:1079E00019C08091D80080FF15C08091DA008E7F89
:1079F0008093DA008091D90019BC80FF09C082E031
:107A000089BD09B400FEFDCF81E08EBB16D202C055
:107A10001EBA13D28091E10080FF17C08091E2006E
:107A200080FF13C08091E2008E7F8093E2008091FE
:107A3000E20080618093E2008091D80080628093B0
:107A4000D80019BC85E08EBBF8D18091E10084FF9D
:107A50002BC08091E20084FF27C019BC82E089BD61
:107A600009B400FEFDCF8091D8008F7D8093D800AF
:107A70008091E1008F7E8093E1008091E2008F7E13
:107A80008093E2008091E20081608093E200809127
:107A9000B201811106C08091E30087FD02C081E040
:107AA00001C084E08EBBC9D18091E10083FF21C079
:107AB0008091E20083FF1DC08091E100877F809369
:107AC000E10082E08EBB1092B2018091E1008E7FD6
:107AD0008093E1008091E2008E7F8093E2008091AC
:107AE000E20080618093E20042E060E080E0E1DE5D
:107AF000A4D1FF91EF91BF91AF919F918F917F9111
:107B00006F915F914F913F912F910F900FBE0F900A
:107B10001F9018952091BA013091BB0126173707A5
:107B200048F06115710539F42091E8002E77209313
:107B3000E80001C0B90140E061157105A1F12EB363
:107B4000222309F440C0253009F43FC02091E80009
:107B500023FD37C02091E80022FD2DC02091E800D0
:107B600020FFEACF4091F3002091F20030E0342B67
:107B7000FC01CF016115710559F02830310540F441
:107B800081918093F100615071092F5F3F4FF1CFD8
:107B900041E02830310509F040E02091E8002E77DF
:107BA0002093E800C9CF4111CACF05C08EB3882306
:107BB00051F0853051F08091E80082FFF7CF80E0EE
:107BC000089581E0089582E0089583E008956115A5
:107BD000710529F42091E8002B772093E800FC013F
:107BE0006115710531F18EB3882359F1853059F152
:107BF0008091E80083FD23C08091E80082FFF0CFF0
:107C00002091F3008091F20090E0922B892B31F0CB
:107C10008091F10081936150710991F78091E800A2
:107C20008B778093E800DCCF8EB3882351F08530CA
:107C300051F08091E80080FFF7CF80E0089581E067
:107C4000089582E0089583E008950F931F93CF93E2
:107C5000DF9300D0CDB7DEB7E4EBF1E088E08E0F24
:107C60009091F10091938E13FBCF22DB8091E8007D
:107C700083FFCEC08091B4019091B501492F50E0AF
:107C80004A30510508F0C4C0FA01EA5AF74CE7C07F
:107C9000823809F0BDC08091B80187708093E900F7
:107CA0008091EB001092E9009091E800977F90930B
:107CB000E80085FB882780F98093F1001092F1009D
:107CC00085C0282F2D7F09F0A3C0823009F0A0C005
:107CD0008091B601811127C08091B801877009F4A5
:107CE00097C08093E9002091EB0020FF1CC09330E7
:107CF00021F48091EB00806214C09091EB009061C0
:107D00009093EB0021E030E0A90102C0440F551F21
:107D10008A95E2F74093EA001092EA008091EB0026
:107D200088608093EB001092E9008091E800877FE3
:107D300050C081116DC01091B6011F770FB7F89434
:107D40008091E800877F8093E800C6DD8091E8009D
:107D500080FFFCCF8091E3008078812B8093E3004B
:107D600080688093E300111102C082E001C083E0CB
:107D70008EBB0FBF4DC08058823008F049C0AE01A5
:107D80004F5F5F4F6091B8018091B6019091B7014C
:107D90005EDDBC01892B09F43BC09091E800977F20
:107DA0009093E80089819A81B5DE8091E8008B7715
:107DB0008093E8002DC0803859F58091E800877FD6
:107DC0008093E8008091B2018093F1008091E800F7
:107DD0008E778093E80080DD1BC0811119C09091DF
:107DE000B6019230A8F48091E800877F8093E80084
:107DF0009093B20171DD8091B201811106C0809132
:107E0000E30087FD02C081E001C084E08EBB44DA5C
:107E10008091E80083FF0AC08091EB00806280932C
:107E2000EB008091E800877F8093E8000F900F902F
:107E3000DF91CF911F910F9108950895CF938EB345
:107E4000882359F0C091E900C7701092E900809131
:107E5000E80083FDFADEC093E900CF910895EE0FAC
:107E6000FF1F0590F491E02D0994F999FECF92BD82
:107E700081BDF89A992780B50895262FF999FECFEC
:107E80001FBA92BD81BD20BD0FB6F894FA9AF99A37
:0A7E90000FBE01960895F894FFCF8D
:107E9A0077770100000000000008180355006E0003
:107EAA006B006E006F0077006E002000200020003B
:107EBA002000000022035500530042002000490020
:107ECA004F00200062006F00610072006400200011
:107EDA0020002000200000000403090409023E00DB
:107EEA000201008032090400000102020100052497
:107EFA000010010424020405240600010705820378
:107F0A000800FF09040100020A0000000705040234
:107F1A00100001070583021000011201100102007E
:107F2A000008B904780901000201000143415445DF
:067F3A0052494E41000017
:040000030000700089
:00000001FF
